:100000000C9434000C9446000C9446000C9446006A
:100010000C9446000C9446000C9446000C94460048
:100020000C9446000C9446000C9446000C94460038
:100030000C9446000C9446000C9446000C94460028
:100040000C9446000C9446000C9446000C94460018
:100050000C9446000C9446000C9446000C94460008
:100060000C9446000C94460011241FBECFEFD8E03C
:10007000DEBFCDBF12E0A0E0B1E001C01D92A03014
:10008000B107E1F70E9480000C9493000C940000EB
:1000900094B5906594BDEAE0FAE13197F1F700C0BC
:1000A000EAE0FAE13197F1F700C028E030E091E0B2
:1000B000492F482331F044B54F7A44BD5E985D988E
:1000C00003C044B5406544BDEAE0FAE13197F1F779
:1000D00000C0EAE0FAE13197F1F700C0990F215032
:1000E000310931F784B5806584BD8AE09AE10197D2
:1000F000F1F700C0EAE0FAE13197F1F700C00895A6
:10010000259A519A569A559A82E084BD81E085BD20
:1001100083ED87BD84B58F7A84BD5E985D9884B584
:0A012000806584BDFCCFF894FFCF8A
:00000001FF
